{
  "contractName": "Escrow",
  "abi": [
    {
      "inputs": [
        {
          "name": "_title_transfer_hash",
          "type": "bytes32"
        },
        {
          "name": "_seller",
          "type": "address"
        }
      ],
      "payable": false,
      "stateMutability": "nonpayable",
      "type": "constructor"
    },
    {
      "anonymous": false,
      "inputs": [],
      "name": "buyer_deposit_complete",
      "type": "event"
    },
    {
      "anonymous": false,
      "inputs": [
        {
          "indexed": false,
          "name": "session_id",
          "type": "string"
        },
        {
          "indexed": false,
          "name": "title_transfer_hash",
          "type": "bytes32"
        }
      ],
      "name": "title_transfer_requested",
      "type": "event"
    },
    {
      "anonymous": false,
      "inputs": [],
      "name": "funds_disbursed",
      "type": "event"
    },
    {
      "anonymous": false,
      "inputs": [],
      "name": "escrow_closed",
      "type": "event"
    },
    {
      "constant": false,
      "inputs": [],
      "name": "deposit",
      "outputs": [],
      "payable": true,
      "stateMutability": "payable",
      "type": "function"
    },
    {
      "constant": false,
      "inputs": [
        {
          "name": "_session_id",
          "type": "string"
        }
      ],
      "name": "request_title_transfer",
      "outputs": [],
      "payable": false,
      "stateMutability": "nonpayable",
      "type": "function"
    },
    {
      "constant": false,
      "inputs": [
        {
          "name": "_response",
          "type": "bool"
        }
      ],
      "name": "greenlight",
      "outputs": [],
      "payable": false,
      "stateMutability": "nonpayable",
      "type": "function"
    },
    {
      "constant": true,
      "inputs": [],
      "name": "get_participants",
      "outputs": [
        {
          "name": "",
          "type": "address"
        },
        {
          "name": "",
          "type": "address"
        }
      ],
      "payable": false,
      "stateMutability": "view",
      "type": "function"
    },
    {
      "constant": true,
      "inputs": [],
      "name": "is_open",
      "outputs": [
        {
          "name": "",
          "type": "bool"
        }
      ],
      "payable": false,
      "stateMutability": "view",
      "type": "function"
    },
    {
      "constant": true,
      "inputs": [],
      "name": "is_deposit_locked",
      "outputs": [
        {
          "name": "",
          "type": "bool"
        }
      ],
      "payable": false,
      "stateMutability": "view",
      "type": "function"
    }
  ],
  "bytecode": "0x60806040526000600460026101000a81548160ff0219169083151502179055506001600460036101000a81548160ff02191690831515021790555034801561004657600080fd5b50604051604080610ca68339810180604052604081101561006657600080fd5b81019080805190602001909291908051906020019092919050505080600160006101000a81548173ffffffffffffffffffffffffffffffffffffffff021916908373ffffffffffffffffffffffffffffffffffffffff160217905550816003819055506001600460026101000a81548160ff0219169083151502179055506000600460036101000a81548160ff0219169083151502179055505050610b96806101106000396000f3fe608060405260043610610072576000357c01000000000000000000000000000000000000000000000000000000009004806302bb9f421461007757806354420c72146101015780639c8f6fb31461013e578063ae54a3631461016d578063d0e30db014610235578063d659d9681461023f575b600080fd5b34801561008357600080fd5b5061008c61026e565b604051808373ffffffffffffffffffffffffffffffffffffffff1673ffffffffffffffffffffffffffffffffffffffff1681526020018273ffffffffffffffffffffffffffffffffffffffff1673ffffffffffffffffffffffffffffffffffffffff1681526020019250505060405180910390f35b34801561010d57600080fd5b5061013c6004803603602081101561012457600080fd5b810190808035151590602001909291905050506102c1565b005b34801561014a57600080fd5b50610153610513565b604051808215151515815260200191505060405180910390f35b34801561017957600080fd5b506102336004803603602081101561019057600080fd5b81019080803590602001906401000000008111156101ad57600080fd5b8201836020820111156101bf57600080fd5b803590602001918460018302840111640100000000831117156101e157600080fd5b91908080601f016020809104026020016040519081016040528093929190818152602001838380828437600081840152601f19601f82011690508083019250505050505050919291929050505061052a565b005b61023d6106fb565b005b34801561024b57600080fd5b506102546108f1565b604051808215151515815260200191505060405180910390f35b600080600160009054906101000a900473ffffffffffffffffffffffffffffffffffffffff166000809054906101000a900473ffffffffffffffffffffffffffffffffffffffff16819150915091509091565b600460029054906101000a900460ff16610343576040517f08c379a00000000000000000000000000000000000000000000000000000000081526004018080602001828103825260158152602001807f54686520657363726f7720697320636c6f7365642e000000000000000000000081525060200191505060405180910390fd5b600160009054906101000a900473ffffffffffffffffffffffffffffffffffffffff1673ffffffffffffffffffffffffffffffffffffffff163373ffffffffffffffffffffffffffffffffffffffff1614806103eb57506000809054906101000a900473ffffffffffffffffffffffffffffffffffffffff1673ffffffffffffffffffffffffffffffffffffffff163373ffffffffffffffffffffffffffffffffffffffff16145b6103f457600080fd5b600160009054906101000a900473ffffffffffffffffffffffffffffffffffffffff1673ffffffffffffffffffffffffffffffffffffffff163373ffffffffffffffffffffffffffffffffffffffff1614156104695780600460016101000a81548160ff0219169083151502179055506104da565b6000809054906101000a900473ffffffffffffffffffffffffffffffffffffffff1673ffffffffffffffffffffffffffffffffffffffff163373ffffffffffffffffffffffffffffffffffffffff1614156104d95780600460006101000a81548160ff0219169083151502179055505b5b600460009054906101000a900460ff1680156105025750600460019054906101000a900460ff165b156105105761050f610908565b5b50565b6000600460039054906101000a900460ff16905090565b600460029054906101000a900460ff166105ac576040517f08c379a00000000000000000000000000000000000000000000000000000000081526004018080602001828103825260158152602001807f54686520657363726f7720697320636c6f7365642e000000000000000000000081525060200191505060405180910390fd5b600160009054906101000a900473ffffffffffffffffffffffffffffffffffffffff1673ffffffffffffffffffffffffffffffffffffffff163373ffffffffffffffffffffffffffffffffffffffff1614610652576040517f08c379a000000000000000000000000000000000000000000000000000000000815260040180806020018281038252602d815260200180610b04602d913960400191505060405180910390fd5b7ff5932b346db83574b9d6113b37460885a8998dfa5cf85290b7938d9d39a1bcfa816003546040518080602001838152602001828103825284818151815260200191508051906020019080838360005b838110156106bd5780820151818401526020810190506106a2565b50505050905090810190601f1680156106ea5780820380516001836020036101000a031916815260200191505b50935050505060405180910390a150565b600460029054906101000a900460ff1661077d576040517f08c379a00000000000000000000000000000000000000000000000000000000081526004018080602001828103825260158152602001807f54686520657363726f7720697320636c6f7365642e000000000000000000000081525060200191505060405180910390fd5b600160009054906101000a900473ffffffffffffffffffffffffffffffffffffffff1673ffffffffffffffffffffffffffffffffffffffff163373ffffffffffffffffffffffffffffffffffffffff1614156107d857600080fd5b60001515600460039054906101000a900460ff16151514610861576040517f08c379a000000000000000000000000000000000000000000000000000000000815260040180806020018281038252601e8152602001807f536f7272792074686520657363726f77206973206e6f77206c6f636b6564000081525060200191505060405180910390fd5b6001600460036101000a81548160ff021916908315150217905550336000806101000a81548173ffffffffffffffffffffffffffffffffffffffff021916908373ffffffffffffffffffffffffffffffffffffffff160217905550346002819055507f43270d591744ea0d1e0029cd7d0c92a69a1e4d6d14aa575c812c62300dc42b0360405160405180910390a1565b6000600460029054906101000a900460ff16905090565b600460029054906101000a900460ff1661098a576040517f08c379a00000000000000000000000000000000000000000000000000000000081526004018080602001828103825260158152602001807f54686520657363726f7720697320636c6f7365642e000000000000000000000081525060200191505060405180910390fd5b60011515600460009054906101000a900460ff1615151480156109c0575060011515600460019054906101000a900460ff161515145b610a15576040517f08c379a000000000000000000000000000000000000000000000000000000000815260040180806020018281038252603a815260200180610b31603a913960400191505060405180910390fd5b600060025490506000600281905550600160009054906101000a900473ffffffffffffffffffffffffffffffffffffffff1673ffffffffffffffffffffffffffffffffffffffff166108fc829081150290604051600060405180830381858888f19350505050158015610a8c573d6000803e3d6000fd5b507f9d23ed731d81f86ea3aaf49d43c24318ca8df59662c1f7de4807a05469f9683a60405160405180910390a16000600460026101000a81548160ff0219169083151502179055507fe1760e1470c9ffbe1944bf685aff5b043b446cc4cbb2ca06dfe196a5c031008f60405160405180910390a15056fe4f6e6c79207468652073656c6c65722063616e20726571756573742061207469746c65207472616e736665722e4e65656420626f7468207061727469657320746f206167726565206265666f726520616e792066756e647320617265206469736275727365642ea165627a7a7230582090495d2c4a5679cec39759ea5ed1d013dd5e79bf366c59f78a6ab4434ef0ca090029",
  "source": "pragma solidity ^0.5.7;\n\ncontract EscrowFactory {\n\n\t// State\n\tmapping(bytes32 => address) escrow_contracts;\n\n\t// Events\n\tevent escrow_opened(bytes32 session_id_hash, address escrow_contract);\n\n\t// Behaviour\n\tfunction open_escrow(bytes32 _title_transfer_hash, bytes32 _session_id_hash)\n\tpublic\n\t{\n\t\taddress escrow = address(new Escrow(_title_transfer_hash, msg.sender));\n\t\tescrow_contracts[_session_id_hash] = escrow;\n\n\t\temit escrow_opened(_session_id_hash, escrow);\n\t}\n\n\tfunction get_escrow(bytes32 _session_id_hash)\n\tpublic view\n\treturns (address)\n\t{\n\t\treturn escrow_contracts[_session_id_hash];\n\t}\n}\n\ncontract Escrow {\n\n\t// State\n\taddress buyer;\n\taddress payable seller;\n\tuint funds;\n\tbytes32 title_transfer_hash;\n\n\tbool buyer_greenlight;\n\tbool seller_greenlight;\n\n\tbool open = false;\n\tbool locked = true;\n\n\n\t// Events\n\tevent buyer_deposit_complete();\n\tevent title_transfer_requested(string session_id, bytes32 title_transfer_hash);\n\tevent funds_disbursed();\n\tevent escrow_closed();\n\n\n\t// Constructor\n\tconstructor(bytes32 _title_transfer_hash, address payable _seller)\n\tpublic\n\t{\n\t\tseller = _seller;\n\t\ttitle_transfer_hash = _title_transfer_hash;\n\t\topen = true;\n\t\tlocked = false;\n\t}\n\n\n\t// Modifiers\n\tmodifier openEscrow() {\n\t\trequire(open, \"The escrow is closed.\");\n\t\t_;\n\t}\n\n\n\t// Behaviour\n\n\t\t// Handle deposits\n\tfunction deposit()\n\tpublic payable openEscrow\n\t{\n\t\trequire(msg.sender != seller);\n\t\trequire(locked == false, \"Sorry the escrow is now locked\");\n\n\t\tlocked = true;\n\n\t\tbuyer = msg.sender;\n\t\tfunds = msg.value;\n\n\t\temit buyer_deposit_complete();\n\t}\n\n\t\t// Handle title transfer request\n\tfunction request_title_transfer(string memory _session_id)\n\tpublic openEscrow\n\t{\n\t\trequire(msg.sender == seller, \"Only the seller can request a title transfer.\");\n\t\temit title_transfer_requested(_session_id, title_transfer_hash);\n\t}\n\n\t\t// Handle buyer and seller responses to title transfer completion\n\tfunction greenlight(bool _response)\n\tpublic openEscrow\n\t{\n\t\trequire(msg.sender == seller || msg.sender == buyer);\n\n\t\tif (msg.sender == seller) {\n\t\t\tseller_greenlight = _response;\n\t\t}\n\t\telse if (msg.sender == buyer) {\n\t\t\tbuyer_greenlight = _response;\n\t\t}\n\n\t\tif (buyer_greenlight && seller_greenlight) {\n\t\t\tdisburse_funds();\n\t\t}\n\t}\n\n\t\t// Handle disbursement of funds and closing of escrow\n\tfunction disburse_funds()\n\tprivate openEscrow\n\t{\n\t\trequire(buyer_greenlight == true && seller_greenlight == true,\n\t\t\t\t  \"Need both parties to agree before any funds are disbursed.\");\n\n\t\tuint amount = funds;\n\t\tfunds = 0;\n\t\tseller.transfer(amount);\n\n\t\temit funds_disbursed();\n\n\t\t// ! INSERT SOME CODE HERE TO INIATE REFUND OF HOLDING DEPOSIT TO BUYER ! //\n\n\t\topen = false;\n\n\t\temit escrow_closed();\n\t}\n\n\n\t// Getters\n\tfunction get_participants()\n\tpublic view\n\treturns (address, address)\n\t{\n\t\treturn (seller, buyer);\n\t}\n\n\tfunction is_open()\n\tpublic view\n\treturns (bool)\n\t{\n\t\treturn open;\n\t}\n\n\tfunction is_deposit_locked()\n\tpublic view\n\treturns (bool)\n\t{\n\t\treturn locked;\n\t}\n}\n",
  "sourcePath": "/c/Users/Vandern Rodrigues/Projects/fyp/contracts/contracts/Escrow.sol",
  "compiler": {
    "name": "solc",
    "version": "0.5.7+commit.6da8b019.Emscripten.clang"
  },
  "schemaVersion": "3.0.5",
  "updatedAt": "2019-04-30T18:41:42.139Z",
  "devdoc": {
    "methods": {}
  },
  "userdoc": {
    "methods": {}
  }
}