{
  "contractName": "EscrowFactory",
  "abi": [
    {
      "anonymous": false,
      "inputs": [
        {
          "indexed": false,
          "name": "session_id_hash",
          "type": "bytes32"
        },
        {
          "indexed": false,
          "name": "escrow_contract",
          "type": "address"
        }
      ],
      "name": "escrow_opened",
      "type": "event",
      "signature": "0xf3f9f1914b513fe09823b581ac7bf3b7d4d4327e8f6ccb4ff08376a224331d41"
    },
    {
      "constant": false,
      "inputs": [
        {
          "name": "_title_transfer_hash",
          "type": "bytes32"
        },
        {
          "name": "_session_id_hash",
          "type": "bytes32"
        }
      ],
      "name": "open_escrow",
      "outputs": [],
      "payable": false,
      "stateMutability": "nonpayable",
      "type": "function",
      "signature": "0xdbbf0708"
    },
    {
      "constant": true,
      "inputs": [
        {
          "name": "_session_id_hash",
          "type": "bytes32"
        }
      ],
      "name": "get_escrow",
      "outputs": [
        {
          "name": "",
          "type": "address"
        }
      ],
      "payable": false,
      "stateMutability": "view",
      "type": "function",
      "signature": "0xe94b2c5a"
    }
  ],
  "bytecode": "0x608060405234801561001057600080fd5b5061131b806100206000396000f3fe608060405234801561001057600080fd5b5060043610610053576000357c010000000000000000000000000000000000000000000000000000000090048063dbbf070814610058578063e94b2c5a14610090575b600080fd5b61008e6004803603604081101561006e57600080fd5b8101908080359060200190929190803590602001909291905050506100fe565b005b6100bc600480360360208110156100a657600080fd5b810190808035906020019092919050505061022b565b604051808273ffffffffffffffffffffffffffffffffffffffff1673ffffffffffffffffffffffffffffffffffffffff16815260200191505060405180910390f35b6000823360405161010e90610267565b808381526020018273ffffffffffffffffffffffffffffffffffffffff1673ffffffffffffffffffffffffffffffffffffffff16815260200192505050604051809103906000f080158015610167573d6000803e3d6000fd5b5090508060008084815260200190815260200160002060006101000a81548173ffffffffffffffffffffffffffffffffffffffff021916908373ffffffffffffffffffffffffffffffffffffffff1602179055507ff3f9f1914b513fe09823b581ac7bf3b7d4d4327e8f6ccb4ff08376a224331d418282604051808381526020018273ffffffffffffffffffffffffffffffffffffffff1673ffffffffffffffffffffffffffffffffffffffff1681526020019250505060405180910390a1505050565b600080600083815260200190815260200160002060009054906101000a900473ffffffffffffffffffffffffffffffffffffffff169050919050565b61107b806102758339019056fe60806040526000600460026101000a81548160ff0219169083151502179055506001600460036101000a81548160ff02191690831515021790555060006004806101000a81548160ff02191690831515021790555034801561006057600080fd5b5060405160408061107b8339810180604052604081101561008057600080fd5b81019080805190602001909291908051906020019092919050505080600160006101000a81548173ffffffffffffffffffffffffffffffffffffffff021916908373ffffffffffffffffffffffffffffffffffffffff160217905550816003819055506001600460026101000a81548160ff0219169083151502179055506000600460036101000a81548160ff0219169083151502179055505050610f518061012a6000396000f3fe60806040526004361061008d576000357c0100000000000000000000000000000000000000000000000000000000900480639c8f6fb31161006b5780639c8f6fb314610170578063ae54a3631461019f578063d0e30db014610267578063d659d968146102715761008d565b806302bb9f421461009257806354420c721461011c5780639952f1bb14610159575b600080fd5b34801561009e57600080fd5b506100a76102a0565b604051808373ffffffffffffffffffffffffffffffffffffffff1673ffffffffffffffffffffffffffffffffffffffff1681526020018273ffffffffffffffffffffffffffffffffffffffff1673ffffffffffffffffffffffffffffffffffffffff1681526020019250505060405180910390f35b34801561012857600080fd5b506101576004803603602081101561013f57600080fd5b810190808035151590602001909291905050506102f6565b005b34801561016557600080fd5b5061016e610548565b005b34801561017c57600080fd5b506101856107f4565b604051808215151515815260200191505060405180910390f35b3480156101ab57600080fd5b50610265600480360360208110156101c257600080fd5b81019080803590602001906401000000008111156101df57600080fd5b8201836020820111156101f157600080fd5b8035906020019184600183028401116401000000008311171561021357600080fd5b91908080601f016020809104026020016040519081016040528093929190818152602001838380828437600081840152601f19601f82011690508083019250505050505050919291929050505061080b565b005b61026f6109dc565b005b34801561027d57600080fd5b50610286610bd2565b604051808215151515815260200191505060405180910390f35b600080600160009054906101000a900473ffffffffffffffffffffffffffffffffffffffff166000809054906101000a900473ffffffffffffffffffffffffffffffffffffffff16819150809050915091509091565b600460029054906101000a900460ff16610378576040517f08c379a00000000000000000000000000000000000000000000000000000000081526004018080602001828103825260158152602001807f54686520657363726f7720697320636c6f7365642e000000000000000000000081525060200191505060405180910390fd5b600160009054906101000a900473ffffffffffffffffffffffffffffffffffffffff1673ffffffffffffffffffffffffffffffffffffffff163373ffffffffffffffffffffffffffffffffffffffff16148061042057506000809054906101000a900473ffffffffffffffffffffffffffffffffffffffff1673ffffffffffffffffffffffffffffffffffffffff163373ffffffffffffffffffffffffffffffffffffffff16145b61042957600080fd5b600160009054906101000a900473ffffffffffffffffffffffffffffffffffffffff1673ffffffffffffffffffffffffffffffffffffffff163373ffffffffffffffffffffffffffffffffffffffff16141561049e5780600460016101000a81548160ff02191690831515021790555061050f565b6000809054906101000a900473ffffffffffffffffffffffffffffffffffffffff1673ffffffffffffffffffffffffffffffffffffffff163373ffffffffffffffffffffffffffffffffffffffff16141561050e5780600460006101000a81548160ff0219169083151502179055505b5b600460009054906101000a900460ff1680156105375750600460019054906101000a900460ff165b1561054557610544610be9565b5b50565b600460029054906101000a900460ff166105ca576040517f08c379a00000000000000000000000000000000000000000000000000000000081526004018080602001828103825260158152602001807f54686520657363726f7720697320636c6f7365642e000000000000000000000081525060200191505060405180910390fd5b6004809054906101000a900460ff161561064c576040517f08c379a000000000000000000000000000000000000000000000000000000000815260040180806020018281038252601a8152602001807f54686520657363726f7720776173207465726d696e617465642e00000000000081525060200191505060405180910390fd5b600160009054906101000a900473ffffffffffffffffffffffffffffffffffffffff1673ffffffffffffffffffffffffffffffffffffffff163373ffffffffffffffffffffffffffffffffffffffff1614806106f457506000809054906101000a900473ffffffffffffffffffffffffffffffffffffffff1673ffffffffffffffffffffffffffffffffffffffff163373ffffffffffffffffffffffffffffffffffffffff16145b6106fd57600080fd5b6000600254905060006002819055506000809054906101000a900473ffffffffffffffffffffffffffffffffffffffff1673ffffffffffffffffffffffffffffffffffffffff166108fc829081150290604051600060405180830381858888f19350505050158015610773573d6000803e3d6000fd5b5060016004806101000a81548160ff0219169083151502179055507fab65f936fe09c9bc08737014f10126c44d9d323a79972e2b2c5082755e7a530233604051808273ffffffffffffffffffffffffffffffffffffffff1673ffffffffffffffffffffffffffffffffffffffff16815260200191505060405180910390a150565b6000600460039054906101000a900460ff16905090565b600460029054906101000a900460ff1661088d576040517f08c379a00000000000000000000000000000000000000000000000000000000081526004018080602001828103825260158152602001807f54686520657363726f7720697320636c6f7365642e000000000000000000000081525060200191505060405180910390fd5b600160009054906101000a900473ffffffffffffffffffffffffffffffffffffffff1673ffffffffffffffffffffffffffffffffffffffff163373ffffffffffffffffffffffffffffffffffffffff1614610933576040517f08c379a000000000000000000000000000000000000000000000000000000000815260040180806020018281038252602d815260200180610ebf602d913960400191505060405180910390fd5b7ff5932b346db83574b9d6113b37460885a8998dfa5cf85290b7938d9d39a1bcfa816003546040518080602001838152602001828103825284818151815260200191508051906020019080838360005b8381101561099e578082015181840152602081019050610983565b50505050905090810190601f1680156109cb5780820380516001836020036101000a031916815260200191505b50935050505060405180910390a150565b600460029054906101000a900460ff16610a5e576040517f08c379a00000000000000000000000000000000000000000000000000000000081526004018080602001828103825260158152602001807f54686520657363726f7720697320636c6f7365642e000000000000000000000081525060200191505060405180910390fd5b600160009054906101000a900473ffffffffffffffffffffffffffffffffffffffff1673ffffffffffffffffffffffffffffffffffffffff163373ffffffffffffffffffffffffffffffffffffffff161415610ab957600080fd5b60001515600460039054906101000a900460ff16151514610b42576040517f08c379a000000000000000000000000000000000000000000000000000000000815260040180806020018281038252601e8152602001807f536f7272792074686520657363726f77206973206e6f77206c6f636b6564000081525060200191505060405180910390fd5b6001600460036101000a81548160ff021916908315150217905550336000806101000a81548173ffffffffffffffffffffffffffffffffffffffff021916908373ffffffffffffffffffffffffffffffffffffffff160217905550346002819055507f43270d591744ea0d1e0029cd7d0c92a69a1e4d6d14aa575c812c62300dc42b0360405160405180910390a1565b6000600460029054906101000a900460ff16905090565b600460029054906101000a900460ff16610c6b576040517f08c379a00000000000000000000000000000000000000000000000000000000081526004018080602001828103825260158152602001807f54686520657363726f7720697320636c6f7365642e000000000000000000000081525060200191505060405180910390fd5b60011515600460009054906101000a900460ff161515148015610ca1575060011515600460019054906101000a900460ff161515145b610cf6576040517f08c379a000000000000000000000000000000000000000000000000000000000815260040180806020018281038252603a815260200180610eec603a913960400191505060405180910390fd5b600060025490506000600281905550600160009054906101000a900473ffffffffffffffffffffffffffffffffffffffff1673ffffffffffffffffffffffffffffffffffffffff166108fc829081150290604051600060405180830381858888f19350505050158015610d6d573d6000803e3d6000fd5b507f9d23ed731d81f86ea3aaf49d43c24318ca8df59662c1f7de4807a05469f9683a60405160405180910390a17f43b13934301eb79b69d0da9e6a5235d3ccbc734be88a44a32d0b07e0b9d7102a600160009054906101000a900473ffffffffffffffffffffffffffffffffffffffff166000809054906101000a900473ffffffffffffffffffffffffffffffffffffffff16604051808373ffffffffffffffffffffffffffffffffffffffff1673ffffffffffffffffffffffffffffffffffffffff1681526020018273ffffffffffffffffffffffffffffffffffffffff1673ffffffffffffffffffffffffffffffffffffffff1681526020019250505060405180910390a16000600460026101000a81548160ff0219169083151502179055507fe1760e1470c9ffbe1944bf685aff5b043b446cc4cbb2ca06dfe196a5c031008f60405160405180910390a15056fe4f6e6c79207468652073656c6c65722063616e20726571756573742061207469746c65207472616e736665722e4e65656420626f7468207061727469657320746f206167726565206265666f726520616e792066756e647320617265206469736275727365642ea165627a7a723058201cd0b8ad58ea15a07fa89dfe2d426f2e76246f265d689fc866dece0867d363760029a165627a7a7230582020a4b94a65dc1c1e495fc8615b30fbf5f44e4fb407f5ffb36fc30b444c7142950029",
  "source": "pragma solidity ^0.5.7;\n\ncontract EscrowFactory {\n\n\t// State\n\tmapping(bytes32 => address) escrow_contracts;\n\n\t// Events\n\tevent escrow_opened(bytes32 session_id_hash, address escrow_contract);\n\n\t// Behaviour\n\tfunction open_escrow(bytes32 _title_transfer_hash, bytes32 _session_id_hash)\n\tpublic\n\t{\n\t\taddress escrow = address(new Escrow(_title_transfer_hash, msg.sender));\n\t\tescrow_contracts[_session_id_hash] = escrow;\n\n\t\temit escrow_opened(_session_id_hash, escrow);\n\t}\n\n\tfunction get_escrow(bytes32 _session_id_hash)\n\tpublic view\n\treturns (address)\n\t{\n\t\treturn escrow_contracts[_session_id_hash];\n\t}\n}\n\ncontract Escrow {\n\n\t// State\n\taddress payable buyer;\n\taddress payable seller;\n\tuint funds;\n\tbytes32 title_transfer_hash;\n\n\tbool buyer_greenlight;\n\tbool seller_greenlight;\n\n\tbool open = false;\n\tbool locked = true;\n\tbool terminated = false;\n\n\n\t// Events\n\tevent buyer_deposit_complete();\n\tevent title_transfer_requested(string session_id, bytes32 title_transfer_hash);\n\tevent funds_disbursed();\n\tevent escrow_closed();\n\tevent escrow_terminated(address requester);\n\tevent release_holding_deposit(address seller, address buyer);\n\n\n\t// Constructor\n\tconstructor(bytes32 _title_transfer_hash, address payable _seller)\n\tpublic\n\t{\n\t\tseller = _seller;\n\t\ttitle_transfer_hash = _title_transfer_hash;\n\t\topen = true;\n\t\tlocked = false;\n\t}\n\n\n\t// Modifiers\n\tmodifier openEscrow() {\n\t\trequire(open, \"The escrow is closed.\");\n\t\t_;\n\t}\n\n\tmodifier notTerminated() {\n\t\trequire(!terminated, \"The escrow was terminated.\");\n\t\t_;\n\t}\n\n\n\t// Behaviour\n\n\t\t// Handle deposits\n\tfunction deposit()\n\tpublic payable openEscrow\n\t{\n\t\trequire(msg.sender != seller);\n\t\trequire(locked == false, \"Sorry the escrow is now locked\");\n\n\t\tlocked = true;\n\n\t\tbuyer = msg.sender;\n\t\tfunds = msg.value;\n\n\t\temit buyer_deposit_complete();\n\t}\n\n\t\t// Handle title transfer request\n\tfunction request_title_transfer(string memory _session_id)\n\tpublic openEscrow\n\t{\n\t\trequire(msg.sender == seller, \"Only the seller can request a title transfer.\");\n\t\temit title_transfer_requested(_session_id, title_transfer_hash);\n\t}\n\n\t\t// Handle buyer and seller responses to title transfer completion\n\tfunction greenlight(bool _response)\n\tpublic openEscrow\n\t{\n\t\trequire(msg.sender == seller || msg.sender == buyer);\n\n\t\tif (msg.sender == seller) {\n\t\t\tseller_greenlight = _response;\n\t\t}\n\t\telse if (msg.sender == buyer) {\n\t\t\tbuyer_greenlight = _response;\n\t\t}\n\n\t\tif (buyer_greenlight && seller_greenlight) {\n\t\t\tdisburse_funds();\n\t\t}\n\t}\n\n\t\t// Handle disbursement of funds and closing of escrow\n\tfunction disburse_funds()\n\tprivate openEscrow\n\t{\n\t\trequire(buyer_greenlight == true && seller_greenlight == true,\n\t\t\t\t  \"Need both parties to agree before any funds are disbursed.\");\n\n\t\tuint amount = funds;\n\t\tfunds = 0;\n\t\tseller.transfer(amount);\n\n\t\temit funds_disbursed();\n\t\temit release_holding_deposit(seller, buyer);\n\n\t\topen = false;\n\n\t\temit escrow_closed();\n\t}\n\n\t\t// Handle requests to leave the session\n\tfunction terminate_escrow()\n\tpublic openEscrow notTerminated\n\t{\n\t\trequire(msg.sender == seller || msg.sender == buyer);\n\n\t\t// Release funds back to buyer\n\t\tuint amount = funds;\n\t\tfunds = 0;\n\t\tbuyer.transfer(amount);\n\n\t\tterminated = true;\n\t\temit escrow_terminated(msg.sender);\n\t}\n\n\t// Getters\n\tfunction get_participants()\n\tpublic view\n\treturns (address, address)\n\t{\n\t\treturn (seller, buyer);\n\t}\n\n\tfunction is_open()\n\tpublic view\n\treturns (bool)\n\t{\n\t\treturn open;\n\t}\n\n\tfunction is_deposit_locked()\n\tpublic view\n\treturns (bool)\n\t{\n\t\treturn locked;\n\t}\n}\n",
  "sourcePath": "/c/Users/Vandern Rodrigues/Projects/fyp/contracts/contracts/Escrow.sol",
  "compiler": {
    "name": "solc",
    "version": "0.5.7+commit.6da8b019.Emscripten.clang"
  },
  "schemaVersion": "3.0.5",
  "updatedAt": "2019-05-12T14:57:11.354Z",
  "devdoc": {
    "methods": {}
  },
  "userdoc": {
    "methods": {}
  }
}