{
  "contractName": "Escrow",
  "abi": [
    {
      "inputs": [
        {
          "name": "_title_transfer_hash",
          "type": "bytes32"
        },
        {
          "name": "_seller",
          "type": "address"
        },
        {
          "name": "_session_id_hash",
          "type": "bytes32"
        }
      ],
      "payable": false,
      "stateMutability": "nonpayable",
      "type": "constructor"
    },
    {
      "anonymous": false,
      "inputs": [],
      "name": "buyer_deposit_complete",
      "type": "event"
    },
    {
      "anonymous": false,
      "inputs": [],
      "name": "title_transfer_requested",
      "type": "event"
    },
    {
      "anonymous": false,
      "inputs": [],
      "name": "funds_disbursed",
      "type": "event"
    },
    {
      "anonymous": false,
      "inputs": [],
      "name": "escrow_closed",
      "type": "event"
    },
    {
      "anonymous": false,
      "inputs": [
        {
          "indexed": false,
          "name": "requester",
          "type": "address"
        }
      ],
      "name": "escrow_terminated",
      "type": "event"
    },
    {
      "anonymous": false,
      "inputs": [],
      "name": "commit_title_transfer",
      "type": "event"
    },
    {
      "anonymous": false,
      "inputs": [],
      "name": "release_holding_deposit",
      "type": "event"
    },
    {
      "constant": false,
      "inputs": [
        {
          "name": "_title_transfer_hash",
          "type": "bytes32"
        }
      ],
      "name": "deposit",
      "outputs": [],
      "payable": true,
      "stateMutability": "payable",
      "type": "function"
    },
    {
      "constant": false,
      "inputs": [],
      "name": "request_title_transfer",
      "outputs": [],
      "payable": false,
      "stateMutability": "nonpayable",
      "type": "function"
    },
    {
      "constant": false,
      "inputs": [
        {
          "name": "_title_draft_hash",
          "type": "bytes32"
        }
      ],
      "name": "title_transfer_response",
      "outputs": [],
      "payable": false,
      "stateMutability": "nonpayable",
      "type": "function"
    },
    {
      "constant": false,
      "inputs": [
        {
          "name": "_title_draft_hash",
          "type": "bytes32"
        },
        {
          "name": "_status",
          "type": "bool"
        }
      ],
      "name": "title_draft_greenlight",
      "outputs": [],
      "payable": false,
      "stateMutability": "nonpayable",
      "type": "function"
    },
    {
      "constant": false,
      "inputs": [],
      "name": "terminate_escrow",
      "outputs": [],
      "payable": false,
      "stateMutability": "nonpayable",
      "type": "function"
    },
    {
      "constant": true,
      "inputs": [],
      "name": "get_participants",
      "outputs": [
        {
          "name": "",
          "type": "address"
        },
        {
          "name": "",
          "type": "address"
        }
      ],
      "payable": false,
      "stateMutability": "view",
      "type": "function"
    },
    {
      "constant": true,
      "inputs": [],
      "name": "is_open",
      "outputs": [
        {
          "name": "",
          "type": "bool"
        }
      ],
      "payable": false,
      "stateMutability": "view",
      "type": "function"
    },
    {
      "constant": true,
      "inputs": [],
      "name": "is_deposit_locked",
      "outputs": [
        {
          "name": "",
          "type": "bool"
        }
      ],
      "payable": false,
      "stateMutability": "view",
      "type": "function"
    }
  ],
  "bytecode": "0x6080604052738a23c7c42333ed6be5a68c24031cd7a737fbcbe8600260006101000a81548173ffffffffffffffffffffffffffffffffffffffff021916908373ffffffffffffffffffffffffffffffffffffffff1602179055506000600760006101000a81548160ff0219169083151502179055506000600760016101000a81548160ff0219169083151502179055506000600760026101000a81548160ff0219169083151502179055506000600760036101000a81548160ff0219169083151502179055506000600760046101000a81548160ff0219169083151502179055506000600760056101000a81548160ff0219169083151502179055506000600760066101000a81548160ff02191690831515021790555034801561012257600080fd5b506040516060806112c78339810180604052606081101561014257600080fd5b8101908080519060200190929190805190602001909291908051906020019092919050505081600160006101000a81548173ffffffffffffffffffffffffffffffffffffffff021916908373ffffffffffffffffffffffffffffffffffffffff16021790555082600481905550806005819055506001600760016101000a81548160ff0219169083151502179055506001600760046101000a81548160ff0219169083151502179055505050506110c9806101fe6000396000f3fe608060405260043610610098576000357c0100000000000000000000000000000000000000000000000000000000900480639952f1bb1161006b5780639952f1bb146101c05780639c8f6fb3146101d7578063b214faa514610206578063d659d9681461023457610098565b806302bb9f421461009d5780630dada3d2146101275780631e7874921461016257806355a0222614610179575b600080fd5b3480156100a957600080fd5b506100b2610263565b604051808373ffffffffffffffffffffffffffffffffffffffff1673ffffffffffffffffffffffffffffffffffffffff1681526020018273ffffffffffffffffffffffffffffffffffffffff1673ffffffffffffffffffffffffffffffffffffffff1681526020019250505060405180910390f35b34801561013357600080fd5b506101606004803603602081101561014a57600080fd5b81019080803590602001909291905050506102b9565b005b34801561016e57600080fd5b50610177610408565b005b34801561018557600080fd5b506101be6004803603604081101561019c57600080fd5b810190808035906020019092919080351515906020019092919050505061055e565b005b3480156101cc57600080fd5b506101d5610854565b005b3480156101e357600080fd5b506101ec610b49565b604051808215151515815260200191505060405180910390f35b6102326004803603602081101561021c57600080fd5b8101908080359060200190929190505050610b60565b005b34801561024057600080fd5b50610249610dcc565b604051808215151515815260200191505060405180910390f35b600080600160009054906101000a900473ffffffffffffffffffffffffffffffffffffffff166000809054906101000a900473ffffffffffffffffffffffffffffffffffffffff16819150809050915091509091565b600760049054906101000a900460ff1661033b576040517f08c379a00000000000000000000000000000000000000000000000000000000081526004018080602001828103825260158152602001807f54686520657363726f7720697320636c6f7365642e000000000000000000000081525060200191505060405180910390fd5b600260009054906101000a900473ffffffffffffffffffffffffffffffffffffffff1673ffffffffffffffffffffffffffffffffffffffff163373ffffffffffffffffffffffffffffffffffffffff16146103fe576040517f08c379a000000000000000000000000000000000000000000000000000000000815260040180806020018281038252601a8152602001807f417574686f72697a6174696f6e20756e7375636365737366756c00000000000081525060200191505060405180910390fd5b8060068190555050565b600760049054906101000a900460ff1661048a576040517f08c379a00000000000000000000000000000000000000000000000000000000081526004018080602001828103825260158152602001807f54686520657363726f7720697320636c6f7365642e000000000000000000000081525060200191505060405180910390fd5b600160009054906101000a900473ffffffffffffffffffffffffffffffffffffffff1673ffffffffffffffffffffffffffffffffffffffff163373ffffffffffffffffffffffffffffffffffffffff1614610530576040517f08c379a000000000000000000000000000000000000000000000000000000000815260040180806020018281038252602d81526020018061100b602d913960400191505060405180910390fd5b7fa65551aa3a105e8f97709f58b42ccca7365b7f76b8ae65c2257b92c3b088a7a560405160405180910390a1565b600760049054906101000a900460ff166105e0576040517f08c379a00000000000000000000000000000000000000000000000000000000081526004018080602001828103825260158152602001807f54686520657363726f7720697320636c6f7365642e000000000000000000000081525060200191505060405180910390fd5b600160009054906101000a900473ffffffffffffffffffffffffffffffffffffffff1673ffffffffffffffffffffffffffffffffffffffff163373ffffffffffffffffffffffffffffffffffffffff16148061068857506000809054906101000a900473ffffffffffffffffffffffffffffffffffffffff1673ffffffffffffffffffffffffffffffffffffffff163373ffffffffffffffffffffffffffffffffffffffff16145b61069157600080fd5b6006548214610708576040517f08c379a00000000000000000000000000000000000000000000000000000000081526004018080602001828103825260198152602001807f5469746c652064726166742068617368206d69736d617463680000000000000081525060200191505060405180910390fd5b600160009054906101000a900473ffffffffffffffffffffffffffffffffffffffff1673ffffffffffffffffffffffffffffffffffffffff163373ffffffffffffffffffffffffffffffffffffffff16141561077d5780600760036101000a81548160ff0219169083151502179055506107ee565b6000809054906101000a900473ffffffffffffffffffffffffffffffffffffffff1673ffffffffffffffffffffffffffffffffffffffff163373ffffffffffffffffffffffffffffffffffffffff1614156107ed5780600760026101000a81548160ff0219169083151502179055505b5b600760029054906101000a900460ff1680156108165750600760039054906101000a900460ff165b15610850577f15bcf09c9c3c9a97f930a992ea1d7cebdaf63d8f42692f9147beadd45d83562960405160405180910390a161084f610de3565b5b5050565b600760049054906101000a900460ff166108d6576040517f08c379a00000000000000000000000000000000000000000000000000000000081526004018080602001828103825260158152602001807f54686520657363726f7720697320636c6f7365642e000000000000000000000081525060200191505060405180910390fd5b600760069054906101000a900460ff1615610959576040517f08c379a000000000000000000000000000000000000000000000000000000000815260040180806020018281038252601a8152602001807f54686520657363726f7720776173207465726d696e617465642e00000000000081525060200191505060405180910390fd5b600160009054906101000a900473ffffffffffffffffffffffffffffffffffffffff1673ffffffffffffffffffffffffffffffffffffffff163373ffffffffffffffffffffffffffffffffffffffff161480610a0157506000809054906101000a900473ffffffffffffffffffffffffffffffffffffffff1673ffffffffffffffffffffffffffffffffffffffff163373ffffffffffffffffffffffffffffffffffffffff16145b610a0a57600080fd5b6000600354905060006003819055506000809054906101000a900473ffffffffffffffffffffffffffffffffffffffff1673ffffffffffffffffffffffffffffffffffffffff166108fc829081150290604051600060405180830381858888f19350505050158015610a80573d6000803e3d6000fd5b506001600760066101000a81548160ff0219169083151502179055507fab65f936fe09c9bc08737014f10126c44d9d323a79972e2b2c5082755e7a530233604051808273ffffffffffffffffffffffffffffffffffffffff1673ffffffffffffffffffffffffffffffffffffffff16815260200191505060405180910390a16000600760046101000a81548160ff0219169083151502179055507fe1760e1470c9ffbe1944bf685aff5b043b446cc4cbb2ca06dfe196a5c031008f60405160405180910390a150565b6000600760059054906101000a900460ff16905090565b600760049054906101000a900460ff16610be2576040517f08c379a00000000000000000000000000000000000000000000000000000000081526004018080602001828103825260158152602001807f54686520657363726f7720697320636c6f7365642e000000000000000000000081525060200191505060405180910390fd5b600160009054906101000a900473ffffffffffffffffffffffffffffffffffffffff1673ffffffffffffffffffffffffffffffffffffffff163373ffffffffffffffffffffffffffffffffffffffff161415610c3d57600080fd5b60001515600760059054906101000a900460ff16151514610cc6576040517f08c379a000000000000000000000000000000000000000000000000000000000815260040180806020018281038252601e8152602001807f536f7272792074686520657363726f77206973206e6f77206c6f636b6564000081525060200191505060405180910390fd5b6004548114610d20576040517f08c379a000000000000000000000000000000000000000000000000000000000815260040180806020018281038252602c815260200180611038602c913960400191505060405180910390fd5b6001600760056101000a81548160ff021916908315150217905550336000806101000a81548173ffffffffffffffffffffffffffffffffffffffff021916908373ffffffffffffffffffffffffffffffffffffffff160217905550346003819055506001600760006101000a81548160ff0219169083151502179055507f43270d591744ea0d1e0029cd7d0c92a69a1e4d6d14aa575c812c62300dc42b0360405160405180910390a150565b6000600760049054906101000a900460ff16905090565b600760049054906101000a900460ff16610e65576040517f08c379a00000000000000000000000000000000000000000000000000000000081526004018080602001828103825260158152602001807f54686520657363726f7720697320636c6f7365642e000000000000000000000081525060200191505060405180910390fd5b60011515600760029054906101000a900460ff161515148015610e9b575060011515600760039054906101000a900460ff161515145b610ef0576040517f08c379a000000000000000000000000000000000000000000000000000000000815260040180806020018281038252603a815260200180611064603a913960400191505060405180910390fd5b600060035490506000600381905550600160009054906101000a900473ffffffffffffffffffffffffffffffffffffffff1673ffffffffffffffffffffffffffffffffffffffff166108fc829081150290604051600060405180830381858888f19350505050158015610f67573d6000803e3d6000fd5b507f9d23ed731d81f86ea3aaf49d43c24318ca8df59662c1f7de4807a05469f9683a60405160405180910390a17f54dd20ef2439b3205844bab91564715a17fa06e8eb9cedcd5c1898a89250164160405160405180910390a16000600760046101000a81548160ff0219169083151502179055507fe1760e1470c9ffbe1944bf685aff5b043b446cc4cbb2ca06dfe196a5c031008f60405160405180910390a15056fe4f6e6c79207468652073656c6c65722063616e20726571756573742061207469746c65207472616e736665722e536f727279207468617420697320616e20696e76616c6964207469746c65207472616e7366657220686173684e65656420626f7468207061727469657320746f206167726565206265666f726520616e792066756e647320617265206469736275727365642ea165627a7a723058201392111095bc3a97ad6b3632cd2df23e74847e448eddf48666e110db6d2eefdc0029",
  "source": "pragma solidity ^0.5.7;\n\ncontract EscrowFactory {\n\n\t// State\n\tmapping(bytes32 => address) escrow_contracts;\n\n\t// Events\n\tevent escrow_opened(bytes32 session_id_hash, address escrow_contract);\n\n\t// Behaviour\n\tfunction open_escrow(bytes32 _title_transfer_hash, bytes32 _session_id_hash)\n\tpublic\n\t{\n\t\taddress escrow = address(new Escrow(_title_transfer_hash, msg.sender, _session_id_hash));\n\t\tescrow_contracts[_session_id_hash] = escrow;\n\n\t\temit escrow_opened(_session_id_hash, escrow);\n\t}\n\n\tfunction get_escrow(bytes32 _session_id_hash)\n\tpublic view\n\treturns (address)\n\t{\n\t\treturn escrow_contracts[_session_id_hash];\n\t}\n}\n\ncontract Escrow {\n\n\t// State\n\taddress payable buyer;\n\taddress payable seller;\n\taddress private escrowOracle = 0x8a23c7C42333ed6be5a68c24031cd7A737fbcBE8;\n\tuint funds;\n\n\tbytes32 title_transfer_hash;\n\tbytes32 session_id_hash;\n\tbytes32 title_draft_hash;\n\n\tbool buyer_transfer_greenlight = false;\n\tbool seller_transfer_greenlight = false;\n\n\tbool buyer_title_draft_greenlight = false;\n\tbool seller_title_draft_greenlight = false;\n\n\tbool open = false;\n\tbool locked = false;\n\tbool terminated = false;\n\n\n\t// Events\n\tevent buyer_deposit_complete();\n\tevent title_transfer_requested();\n\tevent funds_disbursed();\n\tevent escrow_closed();\n\tevent escrow_terminated(address requester);\n\tevent commit_title_transfer();\n\tevent release_holding_deposit();\n\n\n\t// Constructor\n\tconstructor(bytes32 _title_transfer_hash, address payable _seller, bytes32 _session_id_hash)\n\tpublic\n\t{\n\t\t// Setup the seller\n\t\tseller = _seller;\n\t\ttitle_transfer_hash = _title_transfer_hash;\n\t\tsession_id_hash = _session_id_hash;\n\t\tseller_transfer_greenlight = true;\n\t\topen = true;\n\t}\n\n\n\t// Modifiers\n\tmodifier openEscrow() {\n\t\trequire(open, \"The escrow is closed.\");\n\t\t_;\n\t}\n\n\tmodifier notTerminated() {\n\t\trequire(!terminated, \"The escrow was terminated.\");\n\t\t_;\n\t}\n\n\n\t// Behaviour\n\n\t\t// Handle deposits\n\tfunction deposit(bytes32 _title_transfer_hash)\n\tpublic payable openEscrow\n\t{\n\t\trequire(msg.sender != seller);\n\t\trequire(locked == false, \"Sorry the escrow is now locked\");\n\t\trequire(_title_transfer_hash == title_transfer_hash, \"Sorry that is an invalid title transfer hash\");\n\n\t\tlocked = true;\n\n\t\tbuyer = msg.sender;\n\t\tfunds = msg.value;\n\t\tbuyer_transfer_greenlight = true;\n\n\t\temit buyer_deposit_complete();\n\t}\n\n\t\t// Handle title transfer request\n\tfunction request_title_transfer()\n\tpublic openEscrow\n\t{\n\t\trequire(msg.sender == seller, \"Only the seller can request a title transfer.\");\n\t\temit title_transfer_requested();\n\t}\n\n\t\t// Handle title transfer response\n\tfunction title_transfer_response(bytes32 _title_draft_hash)\n\tpublic openEscrow\n\t{\n\t\trequire(msg.sender == escrowOracle, \"Authorization unsuccessful\");\n\t\ttitle_draft_hash = _title_draft_hash;\n\t}\n\n\t\t// Handle buyer and seller responses to title transfer completion\n\tfunction title_draft_greenlight(bytes32 _title_draft_hash, bool _status)\n\tpublic openEscrow\n\t{\n\t\trequire(msg.sender == seller || msg.sender == buyer);\n\t\trequire(_title_draft_hash == title_draft_hash, \"Title draft hash mismatch\");\n\n\t\tif (msg.sender == seller) {\n\t\t\tseller_title_draft_greenlight = _status;\n\t\t}\n\t\telse if (msg.sender == buyer) {\n\t\t\tbuyer_title_draft_greenlight = _status;\n\t\t}\n\n\t\tif (buyer_title_draft_greenlight && seller_title_draft_greenlight) {\n\t\t\temit commit_title_transfer();\n\t\t\tdisburse_funds();\n\t\t}\n\t}\n\n\t\t// Handle disbursement of funds and closing of escrow\n\tfunction disburse_funds()\n\tprivate openEscrow\n\t{\n\t\trequire(buyer_title_draft_greenlight == true && seller_title_draft_greenlight == true,\n\t\t\t\t  \"Need both parties to agree before any funds are disbursed.\");\n\n\t\tuint amount = funds;\n\t\tfunds = 0;\n\t\tseller.transfer(amount);\n\n\t\temit funds_disbursed();\n\t\temit release_holding_deposit();\n\n\t\topen = false;\n\t\temit escrow_closed();\n\t}\n\n\t\t// Handle requests to leave the session\n\tfunction terminate_escrow()\n\tpublic openEscrow notTerminated\n\t{\n\t\trequire(msg.sender == seller || msg.sender == buyer);\n\n\t\t// Release funds back to buyer\n\t\tuint amount = funds;\n\t\tfunds = 0;\n\t\tbuyer.transfer(amount);\n\n\t\tterminated = true;\n\t\temit escrow_terminated(msg.sender);\n\n\t\topen = false;\n\t\temit escrow_closed();\n\t}\n\n\t// Getters\n\tfunction get_participants()\n\tpublic view\n\treturns (address, address)\n\t{\n\t\treturn (seller, buyer);\n\t}\n\n\tfunction is_open()\n\tpublic view\n\treturns (bool)\n\t{\n\t\treturn open;\n\t}\n\n\tfunction is_deposit_locked()\n\tpublic view\n\treturns (bool)\n\t{\n\t\treturn locked;\n\t}\n}\n",
  "sourcePath": "/c/Users/Vandern Rodrigues/Projects/fyp/contracts/contracts/Escrow.sol",
  "compiler": {
    "name": "solc",
    "version": "0.5.7+commit.6da8b019.Emscripten.clang"
  },
  "schemaVersion": "3.0.5",
  "updatedAt": "2019-05-16T11:59:42.122Z",
  "devdoc": {
    "methods": {}
  },
  "userdoc": {
    "methods": {}
  }
}