{
  "contractName": "HoldingDepositFactory",
  "abi": [
    {
      "anonymous": false,
      "inputs": [
        {
          "indexed": false,
          "name": "session_id_hash",
          "type": "bytes32"
        },
        {
          "indexed": false,
          "name": "holding_deposit_contract",
          "type": "address"
        }
      ],
      "name": "holding_deposit_created",
      "type": "event"
    },
    {
      "constant": false,
      "inputs": [
        {
          "name": "_session_id_hash",
          "type": "bytes32"
        }
      ],
      "name": "open_holding_deposit",
      "outputs": [],
      "payable": false,
      "stateMutability": "nonpayable",
      "type": "function"
    },
    {
      "constant": true,
      "inputs": [
        {
          "name": "_session_id_hash",
          "type": "bytes32"
        }
      ],
      "name": "get_holding_deposit_contract",
      "outputs": [
        {
          "name": "",
          "type": "address"
        }
      ],
      "payable": false,
      "stateMutability": "view",
      "type": "function"
    }
  ],
  "bytecode": "0x608060405234801561001057600080fd5b506116fd806100206000396000f3fe608060405234801561001057600080fd5b5060043610610053576000357c01000000000000000000000000000000000000000000000000000000009004806336caad5514610058578063db0fe4e5146100c6575b600080fd5b6100846004803603602081101561006e57600080fd5b81019080803590602001909291905050506100f4565b604051808273ffffffffffffffffffffffffffffffffffffffff1673ffffffffffffffffffffffffffffffffffffffff16815260200191505060405180910390f35b6100f2600480360360208110156100dc57600080fd5b8101908080359060200190929190505050610130565b005b600080600083815260200190815260200160002060009054906101000a900473ffffffffffffffffffffffffffffffffffffffff169050919050565b60003360405161013f90610254565b808273ffffffffffffffffffffffffffffffffffffffff1673ffffffffffffffffffffffffffffffffffffffff168152602001915050604051809103906000f080158015610191573d6000803e3d6000fd5b5090508060008084815260200190815260200160002060006101000a81548173ffffffffffffffffffffffffffffffffffffffff021916908373ffffffffffffffffffffffffffffffffffffffff1602179055507f46a9a9c9589c0b30c880e480e042c74cbcf20b5949ac62a75bb1f7c3aa1d47198282604051808381526020018273ffffffffffffffffffffffffffffffffffffffff1673ffffffffffffffffffffffffffffffffffffffff1681526020019250505060405180910390a15050565b611470806102628339019056fe60806040526000600360006101000a81548160ff0219169083151502179055506000600360016101000a81548160ff0219169083151502179055506000600360026101000a81548160ff02191690831515021790555060016003806101000a81548160ff02191690831515021790555034801561007b57600080fd5b506040516020806114708339810180604052602081101561009b57600080fd5b810190808051906020019092919050505080600160006101000a81548173ffffffffffffffffffffffffffffffffffffffff021916908373ffffffffffffffffffffffffffffffffffffffff1602179055506001600360006101000a81548160ff0219169083151502179055506001600360026101000a81548160ff0219169083151502179055505061133d806101336000396000f3fe6080604052600436106100ae576000357c010000000000000000000000000000000000000000000000000000000090048063695394ea11610076578063695394ea146101e25780638fb9e30a1461020d578063b45978d01461024a578063d659d96814610279578063fc148f4d146102a8576100ae565b806302bb9f42146100b357806313d14b781461013d57806313ee6a731461016c57806321f74915146101765780633abe61ce146101b3575b600080fd5b3480156100bf57600080fd5b506100c86102bf565b604051808373ffffffffffffffffffffffffffffffffffffffff1673ffffffffffffffffffffffffffffffffffffffff1681526020018273ffffffffffffffffffffffffffffffffffffffff1673ffffffffffffffffffffffffffffffffffffffff1681526020019250505060405180910390f35b34801561014957600080fd5b50610152610315565b604051808215151515815260200191505060405180910390f35b61017461032b565b005b34801561018257600080fd5b506101b16004803603602081101561019957600080fd5b81019080803515159060200190929190505050610506565b005b3480156101bf57600080fd5b506101c861089f565b604051808215151515815260200191505060405180910390f35b3480156101ee57600080fd5b506101f761091b565b6040518082815260200191505060405180910390f35b34801561021957600080fd5b506102486004803603602081101561023057600080fd5b81019080803515159060200190929190505050610925565b005b34801561025657600080fd5b5061025f610b90565b604051808215151515815260200191505060405180910390f35b34801561028557600080fd5b5061028e610c0c565b604051808215151515815260200191505060405180910390f35b3480156102b457600080fd5b506102bd610c23565b005b6000806000809054906101000a900473ffffffffffffffffffffffffffffffffffffffff16600160009054906101000a900473ffffffffffffffffffffffffffffffffffffffff16819150809050915091509091565b60006003809054906101000a900460ff16905090565b600360029054906101000a900460ff16610390576040517f08c379a00000000000000000000000000000000000000000000000000000000081526004018080602001828103825260298152602001806112826029913960400191505060405180910390fd5b600160009054906101000a900473ffffffffffffffffffffffffffffffffffffffff1673ffffffffffffffffffffffffffffffffffffffff163373ffffffffffffffffffffffffffffffffffffffff161415610437576040517f08c379a000000000000000000000000000000000000000000000000000000000815260040180806020018281038252602d815260200180611218602d913960400191505060405180910390fd5b336000806101000a81548173ffffffffffffffffffffffffffffffffffffffff021916908373ffffffffffffffffffffffffffffffffffffffff160217905550346002819055506001600360016101000a81548160ff0219169083151502179055507fc7c1b3f805ded913973a32415839b51f7472b046809d3a83a85aea15693330d13334604051808373ffffffffffffffffffffffffffffffffffffffff1673ffffffffffffffffffffffffffffffffffffffff1681526020018281526020019250505060405180910390a1565b600360029054906101000a900460ff1661056b576040517f08c379a00000000000000000000000000000000000000000000000000000000081526004018080602001828103825260298152602001806112826029913960400191505060405180910390fd5b6000809054906101000a900473ffffffffffffffffffffffffffffffffffffffff1673ffffffffffffffffffffffffffffffffffffffff163373ffffffffffffffffffffffffffffffffffffffff1614806106135750600160009054906101000a900473ffffffffffffffffffffffffffffffffffffffff1673ffffffffffffffffffffffffffffffffffffffff163373ffffffffffffffffffffffffffffffffffffffff16145b610668576040517f08c379a000000000000000000000000000000000000000000000000000000000815260040180806020018281038252603d815260200180611245603d913960400191505060405180910390fd5b600460008060009054906101000a900473ffffffffffffffffffffffffffffffffffffffff1673ffffffffffffffffffffffffffffffffffffffff1673ffffffffffffffffffffffffffffffffffffffff16815260200190815260200160002060009054906101000a900460ff16801561074d575060046000600160009054906101000a900473ffffffffffffffffffffffffffffffffffffffff1673ffffffffffffffffffffffffffffffffffffffff1673ffffffffffffffffffffffffffffffffffffffff16815260200190815260200160002060009054906101000a900460ff165b6107a2576040517f08c379a000000000000000000000000000000000000000000000000000000000815260040180806020018281038252603e8152602001806111da603e913960400191505060405180910390fd5b600160009054906101000a900473ffffffffffffffffffffffffffffffffffffffff1673ffffffffffffffffffffffffffffffffffffffff163373ffffffffffffffffffffffffffffffffffffffff1614610848576040517f08c379a000000000000000000000000000000000000000000000000000000000815260040180806020018281038252603c8152602001806112ab603c913960400191505060405180910390fd5b806003806101000a81548160ff0219169083151502179055507f7c2e10bc6fec2dce37c8b702a67f1a801b63abfa3c2633d7e25ff245d3655d0c81604051808215151515815260200191505060405180910390a150565b6000600360029054906101000a900460ff16610906576040517f08c379a00000000000000000000000000000000000000000000000000000000081526004018080602001828103825260298152602001806112826029913960400191505060405180910390fd5b600360009054906101000a900460ff16905090565b6000600254905090565b600360029054906101000a900460ff1661098a576040517f08c379a00000000000000000000000000000000000000000000000000000000081526004018080602001828103825260298152602001806112826029913960400191505060405180910390fd5b6000809054906101000a900473ffffffffffffffffffffffffffffffffffffffff1673ffffffffffffffffffffffffffffffffffffffff163373ffffffffffffffffffffffffffffffffffffffff161480610a325750600160009054906101000a900473ffffffffffffffffffffffffffffffffffffffff1673ffffffffffffffffffffffffffffffffffffffff163373ffffffffffffffffffffffffffffffffffffffff16145b610a87576040517f08c379a000000000000000000000000000000000000000000000000000000000815260040180806020018281038252603d815260200180611245603d913960400191505060405180910390fd5b6000809054906101000a900473ffffffffffffffffffffffffffffffffffffffff1673ffffffffffffffffffffffffffffffffffffffff163373ffffffffffffffffffffffffffffffffffffffff161415610afb5780600360016101000a81548160ff021916908315150217905550610b16565b80600360006101000a81548160ff0219169083151502179055505b7f8ccded3c3839def5815fec37a327366b2f6e1b39e3400f528d7f299bace67e0e3382604051808373ffffffffffffffffffffffffffffffffffffffff1673ffffffffffffffffffffffffffffffffffffffff168152602001821515151581526020019250505060405180910390a1610b8d610e42565b50565b6000600360029054906101000a900460ff16610bf7576040517f08c379a00000000000000000000000000000000000000000000000000000000081526004018080602001828103825260298152602001806112826029913960400191505060405180910390fd5b600360019054906101000a900460ff16905090565b6000600360029054906101000a900460ff16905090565b600360029054906101000a900460ff16610c88576040517f08c379a00000000000000000000000000000000000000000000000000000000081526004018080602001828103825260298152602001806112826029913960400191505060405180910390fd5b6000809054906101000a900473ffffffffffffffffffffffffffffffffffffffff1673ffffffffffffffffffffffffffffffffffffffff163373ffffffffffffffffffffffffffffffffffffffff161480610d305750600160009054906101000a900473ffffffffffffffffffffffffffffffffffffffff1673ffffffffffffffffffffffffffffffffffffffff163373ffffffffffffffffffffffffffffffffffffffff16145b610d85576040517f08c379a000000000000000000000000000000000000000000000000000000000815260040180806020018281038252603d815260200180611245603d913960400191505060405180910390fd5b6001600460003373ffffffffffffffffffffffffffffffffffffffff1673ffffffffffffffffffffffffffffffffffffffff16815260200190815260200160002060006101000a81548160ff0219169083151502179055507f76067f55ebd0ed8700f471204417ac5f546addcb7d892ec41403f3c2a2e58df833604051808273ffffffffffffffffffffffffffffffffffffffff1673ffffffffffffffffffffffffffffffffffffffff16815260200191505060405180910390a1565b60001515600360009054906101000a900460ff1615151415610e8d57610e886000809054906101000a900473ffffffffffffffffffffffffffffffffffffffff16610f30565b610f2e565b60001515600360019054906101000a900460ff1615151415610f2d576003809054906101000a900460ff1615610eec57610ee76000809054906101000a900473ffffffffffffffffffffffffffffffffffffffff16610f30565b610f2c565b6003809054906101000a900460ff16610f2b57610f2a600160009054906101000a900473ffffffffffffffffffffffffffffffffffffffff16610f30565b5b5b5b5b565b600160009054906101000a900473ffffffffffffffffffffffffffffffffffffffff1673ffffffffffffffffffffffffffffffffffffffff168173ffffffffffffffffffffffffffffffffffffffff161480610fd857506000809054906101000a900473ffffffffffffffffffffffffffffffffffffffff1673ffffffffffffffffffffffffffffffffffffffff168173ffffffffffffffffffffffffffffffffffffffff16145b61102d576040517f08c379a000000000000000000000000000000000000000000000000000000000815260040180806020018281038252602b8152602001806112e7602b913960400191505060405180910390fd5b600060025490506000600160009054906101000a900473ffffffffffffffffffffffffffffffffffffffff1673ffffffffffffffffffffffffffffffffffffffff168373ffffffffffffffffffffffffffffffffffffffff1614156110b657600160009054906101000a900473ffffffffffffffffffffffffffffffffffffffff1690506110db565b6000809054906101000a900473ffffffffffffffffffffffffffffffffffffffff1690505b8073ffffffffffffffffffffffffffffffffffffffff166108fc839081150290604051600060405180830381858888f19350505050158015611121573d6000803e3d6000fd5b507f39bb2fc047ce133db19b8ea5f97f0f5a13a5b2ecfffcbd5df2caaf2edcddc9e08183604051808373ffffffffffffffffffffffffffffffffffffffff1673ffffffffffffffffffffffffffffffffffffffff1681526020018281526020019250505060405180910390a16000600360026101000a81548160ff0219169083151502179055507fda12678ca58f54556c5dc1a4c78af983d0afb767db0047c6e81a6861824360d260405160405180910390a150505056fe4e65656420626f7468207369676e61747572657320746f206d616b6520616e79206368616e67657320746f20746865206465706f7369742073746174757353656c6c65722063616e6e6f74206465706f73697420696e746f207468656972206f776e20686f6c64696e672e4f6e6c79207061727469636970616e747320696e207468697320636f6e74726163742063616e20696e766f6b652074686573652066756e6374696f6e735468697320686f6c64696e67206465706f73697420636f6e74726163742068617320636c6f7365642e4f6e6c79207468652073656c6c65722063616e20696e69746961746520616e2075706461746520746f20746865206465706f736974207374617475734f6e6c79207061727469636970616e74732063616e20686176652066756e64732077697468647261776e2ea165627a7a723058206fbdf33a23c84079632bed9eb0f2a48c3583a213e811f7462b1090a317bc241d0029a165627a7a723058209f00a399c0e9944a140fbd6d640a728155b3a7c9c77dd24115df51b85c9c04340029",
  "source": "pragma solidity ^0.5.7;\n\n\ncontract HoldingDepositFactory {\n\n\t// State\n\tmapping(bytes32 => address) holding_deposit_contracts;\n\n\n\t// Events\n\tevent holding_deposit_created(bytes32 session_id_hash, address holding_deposit_contract);\n\n\n\t// Behaviour\n\tfunction open_holding_deposit(bytes32 _session_id_hash)\n\tpublic\n\t{\n\t\taddress holding_deposit_contract = address(new HoldingDeposit(msg.sender));\n\t\tholding_deposit_contracts[_session_id_hash] = holding_deposit_contract;\n\n\t\temit holding_deposit_created(_session_id_hash, holding_deposit_contract);\n\t}\n\n\tfunction get_holding_deposit_contract(bytes32 _session_id_hash)\n\tpublic view\n\treturns (address)\n\t{\n\t\treturn holding_deposit_contracts[_session_id_hash];\n\t}\n}\n\ncontract HoldingDeposit {\n\n\t// State\n\taddress payable buyer;\n\taddress payable seller;\n\tuint deposit;\n\n\tbool seller_status = false;\n\tbool buyer_status = false;\n\tbool open = false;\n\tbool deposit_refundable = true;\n\n\tmapping(address => bool) signatures;\n\n\n\t// Constructor\n\tconstructor(address payable _seller)\n\tpublic\n\t{\n\t\t// Add seller to the contract\n\t\tseller = _seller;\n\t\tseller_status = true;\n\t\topen = true;\n\t}\n\n\n\t// Modifiers\n\tmodifier openHolding() {\n\t\trequire(open, \"This holding deposit contract has closed.\");\n\t\t_;\n\t}\n\n\tmodifier onlyParticipants() {\n\t\trequire(msg.sender == buyer || msg.sender == seller,\n\t\t\t\t \"Only participants in this contract can invoke these functions\");\n\t\t_;\n\t}\n\n\n\t// Events\n\tevent funds_deposited(address buyer, uint value);\n\tevent status_updated(address sender, bool status);\n\tevent signature_added(address approver);\n\tevent deposit_status_updated(bool status);\n\tevent deposit_withdrawn(address receiver, uint amount);\n\tevent contract_closed();\n\n\t// Functions\n\tfunction deposit_funds()\n\tpublic payable openHolding\n\t{\n\t\trequire(msg.sender != seller, \"Seller cannot deposit into their own holding.\");\n\n\t\tbuyer = msg.sender;\n\t\tdeposit = msg.value;\n\t\tbuyer_status = true;\n\n\t\temit funds_deposited(msg.sender, msg.value);\n\t}\n\n\tfunction update_status(bool _status)\n\tpublic openHolding onlyParticipants\n\t{\n\t\tif (msg.sender == buyer) {\n\t\t\tbuyer_status = _status;\n\t\t}\n\t\telse {\n\t\t\tseller_status = _status;\n\t\t}\n\n\t\temit status_updated(msg.sender, _status);\n\n\t\tcheck_deposit_status();\n\t}\n\n\tfunction approve_deposit_status_update()\n\tpublic openHolding onlyParticipants\n\t{\n\t\tsignatures[msg.sender] = true;\n\t\temit signature_added(msg.sender);\n\t}\n\n\tfunction update_deposit_status(bool _status)\n\tpublic openHolding onlyParticipants\n\t{\n\t\trequire(signatures[buyer] && signatures[seller], \"Need both signatures to make any changes to the deposit status\");\n\t\trequire(msg.sender == seller, \"Only the seller can initiate an update to the deposit status\");\n\t\tdeposit_refundable = _status;\n\t\temit deposit_status_updated(_status);\n\t}\n\n\tfunction withdraw(address payable _receiver)\n\tprivate\n\t{\n\t\trequire(_receiver == seller || _receiver == buyer, \"Only participants can have funds withdrawn.\");\n\n\t\tuint deposit_amount = deposit;\n\t\taddress payable receiver;\n\n\t\t// Determine receiver of deposit\n\t\tif (_receiver == seller) {\n\t\t\treceiver = seller;\n\t\t}\n\t\telse {\n\t\t\treceiver = buyer;\n\t\t}\n\n\t\t// Withraw the deposit\n\t\treceiver.transfer(deposit_amount);\n\t\temit deposit_withdrawn(receiver, deposit_amount);\n\n\t\t// Close the holding deposit contract\n\t\topen = false;\n\t\temit contract_closed();\n\t}\n\n\tfunction check_deposit_status()\n\tprivate\n\t{\n\t\t// If seller says no, buyer is refunded deposit\n\t\tif (seller_status == false) {\n\t\t\twithdraw(buyer);\n\t\t}\n\t\telse if (buyer_status == false) {\n\t\t\t// Check status of deposit\n\t\t\tif (deposit_refundable) {\n\t\t\t\twithdraw(buyer);\n\t\t\t}\n\t\t\telse if (!deposit_refundable) {\n\t\t\t\twithdraw(seller);\n\t\t\t}\n\t\t}\n\t}\n\n\n\t// Getters\n\tfunction get_participants()\n\tpublic view\n\treturns (address, address)\n\t{\n\t\treturn (buyer, seller);\n\t}\n\n\tfunction is_refundable()\n\tpublic view\n\treturns (bool)\n\t{\n\t\treturn deposit_refundable;\n\t}\n\n\tfunction is_open()\n\tpublic view\n\treturns (bool)\n\t{\n\t\treturn open;\n\t}\n\n\tfunction get_deposit_amount()\n\tpublic view\n\treturns (uint)\n\t{\n\t\treturn deposit;\n\t}\n\n\tfunction get_buyer_status()\n\tpublic view openHolding\n\treturns (bool)\n\t{\n\t\treturn buyer_status;\n\t}\n\n\tfunction get_seller_status()\n\tpublic view openHolding\n\treturns (bool)\n\t{\n\t\treturn seller_status;\n\t}\n}\n",
  "sourcePath": "/c/Users/Vandern Rodrigues/Projects/fyp/contracts/contracts/HoldingDeposit.sol",
  "compiler": {
    "name": "solc",
    "version": "0.5.7+commit.6da8b019.Emscripten.clang"
  },
  "schemaVersion": "3.0.5",
  "updatedAt": "2019-04-30T14:35:25.664Z",
  "devdoc": {
    "methods": {}
  },
  "userdoc": {
    "methods": {}
  }
}