{
  "contractName": "HoldingDeposit",
  "abi": [
    {
      "inputs": [
        {
          "name": "_seller",
          "type": "address"
        }
      ],
      "payable": false,
      "stateMutability": "nonpayable",
      "type": "constructor"
    },
    {
      "anonymous": false,
      "inputs": [
        {
          "indexed": false,
          "name": "buyer",
          "type": "address"
        },
        {
          "indexed": false,
          "name": "value",
          "type": "uint256"
        }
      ],
      "name": "funds_deposited",
      "type": "event"
    },
    {
      "anonymous": false,
      "inputs": [
        {
          "indexed": false,
          "name": "sender",
          "type": "address"
        },
        {
          "indexed": false,
          "name": "status",
          "type": "bool"
        }
      ],
      "name": "status_updated",
      "type": "event"
    },
    {
      "anonymous": false,
      "inputs": [
        {
          "indexed": false,
          "name": "status",
          "type": "bool"
        }
      ],
      "name": "deposit_status_updated",
      "type": "event"
    },
    {
      "anonymous": false,
      "inputs": [
        {
          "indexed": false,
          "name": "receiver",
          "type": "address"
        },
        {
          "indexed": false,
          "name": "amount",
          "type": "uint256"
        }
      ],
      "name": "deposit_withdrawn",
      "type": "event"
    },
    {
      "anonymous": false,
      "inputs": [],
      "name": "hd_closed",
      "type": "event"
    },
    {
      "constant": false,
      "inputs": [],
      "name": "deposit_funds",
      "outputs": [],
      "payable": true,
      "stateMutability": "payable",
      "type": "function"
    },
    {
      "constant": false,
      "inputs": [
        {
          "name": "_status",
          "type": "bool"
        }
      ],
      "name": "update_status",
      "outputs": [],
      "payable": false,
      "stateMutability": "nonpayable",
      "type": "function"
    },
    {
      "constant": false,
      "inputs": [
        {
          "name": "_status",
          "type": "bool"
        }
      ],
      "name": "update_deposit_status",
      "outputs": [],
      "payable": false,
      "stateMutability": "nonpayable",
      "type": "function"
    },
    {
      "constant": false,
      "inputs": [],
      "name": "release_deposit",
      "outputs": [],
      "payable": false,
      "stateMutability": "nonpayable",
      "type": "function"
    },
    {
      "constant": true,
      "inputs": [],
      "name": "get_participants",
      "outputs": [
        {
          "name": "",
          "type": "address"
        },
        {
          "name": "",
          "type": "address"
        }
      ],
      "payable": false,
      "stateMutability": "view",
      "type": "function"
    },
    {
      "constant": true,
      "inputs": [],
      "name": "is_refundable",
      "outputs": [
        {
          "name": "",
          "type": "bool"
        }
      ],
      "payable": false,
      "stateMutability": "view",
      "type": "function"
    },
    {
      "constant": true,
      "inputs": [],
      "name": "is_open",
      "outputs": [
        {
          "name": "",
          "type": "bool"
        }
      ],
      "payable": false,
      "stateMutability": "view",
      "type": "function"
    },
    {
      "constant": true,
      "inputs": [],
      "name": "get_deposit_amount",
      "outputs": [
        {
          "name": "",
          "type": "uint256"
        }
      ],
      "payable": false,
      "stateMutability": "view",
      "type": "function"
    },
    {
      "constant": true,
      "inputs": [],
      "name": "get_buyer_status",
      "outputs": [
        {
          "name": "",
          "type": "bool"
        }
      ],
      "payable": false,
      "stateMutability": "view",
      "type": "function"
    },
    {
      "constant": true,
      "inputs": [],
      "name": "get_seller_status",
      "outputs": [
        {
          "name": "",
          "type": "bool"
        }
      ],
      "payable": false,
      "stateMutability": "view",
      "type": "function"
    }
  ],
  "bytecode": "0x6080604052738a23c7c42333ed6be5a68c24031cd7a737fbcbe8600260006101000a81548173ffffffffffffffffffffffffffffffffffffffff021916908373ffffffffffffffffffffffffffffffffffffffff1602179055506000600460006101000a81548160ff0219169083151502179055506000600460016101000a81548160ff0219169083151502179055506000600460026101000a81548160ff0219169083151502179055506000600460036101000a81548160ff02191690831515021790555060016004806101000a81548160ff0219169083151502179055503480156100eb57600080fd5b506040516020806112e98339810180604052602081101561010b57600080fd5b810190808051906020019092919050505080600160006101000a81548173ffffffffffffffffffffffffffffffffffffffff021916908373ffffffffffffffffffffffffffffffffffffffff1602179055506001600460006101000a81548160ff0219169083151502179055506001600460026101000a81548160ff02191690831515021790555050611146806101a36000396000f3fe6080604052600436106100ae576000357c010000000000000000000000000000000000000000000000000000000090048063695394ea11610076578063695394ea146101e25780638eb5e1691461020d5780638fb9e30a14610224578063b45978d014610261578063d659d96814610290576100ae565b806302bb9f42146100b357806313d14b781461013d57806313ee6a731461016c57806321f74915146101765780633abe61ce146101b3575b600080fd5b3480156100bf57600080fd5b506100c86102bf565b604051808373ffffffffffffffffffffffffffffffffffffffff1673ffffffffffffffffffffffffffffffffffffffff1681526020018273ffffffffffffffffffffffffffffffffffffffff1673ffffffffffffffffffffffffffffffffffffffff1681526020019250505060405180910390f35b34801561014957600080fd5b50610152610315565b604051808215151515815260200191505060405180910390f35b61017461032b565b005b34801561018257600080fd5b506101b16004803603602081101561019957600080fd5b810190808035151590602001909291905050506105a4565b005b3480156101bf57600080fd5b506101c8610803565b604051808215151515815260200191505060405180910390f35b3480156101ee57600080fd5b506101f761087f565b6040518082815260200191505060405180910390f35b34801561021957600080fd5b50610222610889565b005b34801561023057600080fd5b5061025f6004803603602081101561024757600080fd5b81019080803515159060200190929190505050610978565b005b34801561026d57600080fd5b50610276610be3565b604051808215151515815260200191505060405180910390f35b34801561029c57600080fd5b506102a5610c5f565b604051808215151515815260200191505060405180910390f35b600080600160009054906101000a900473ffffffffffffffffffffffffffffffffffffffff166000809054906101000a900473ffffffffffffffffffffffffffffffffffffffff16819150809050915091509091565b60006004809054906101000a900460ff16905090565b600460029054906101000a900460ff16610390576040517f08c379a000000000000000000000000000000000000000000000000000000000815260040180806020018281038252602981526020018061108b6029913960400191505060405180910390fd5b600460039054906101000a900460ff1615610413576040517f08c379a00000000000000000000000000000000000000000000000000000000081526004018080602001828103825260108152602001807f4e6f206d6f7265206465706f736974730000000000000000000000000000000081525060200191505060405180910390fd5b600160009054906101000a900473ffffffffffffffffffffffffffffffffffffffff1673ffffffffffffffffffffffffffffffffffffffff163373ffffffffffffffffffffffffffffffffffffffff1614156104ba576040517f08c379a000000000000000000000000000000000000000000000000000000000815260040180806020018281038252602d815260200180611021602d913960400191505060405180910390fd5b6001600460036101000a81548160ff021916908315150217905550336000806101000a81548173ffffffffffffffffffffffffffffffffffffffff021916908373ffffffffffffffffffffffffffffffffffffffff160217905550346003819055506001600460016101000a81548160ff0219169083151502179055507fc7c1b3f805ded913973a32415839b51f7472b046809d3a83a85aea15693330d13334604051808373ffffffffffffffffffffffffffffffffffffffff1673ffffffffffffffffffffffffffffffffffffffff1681526020018281526020019250505060405180910390a1565b600460029054906101000a900460ff16610609576040517f08c379a000000000000000000000000000000000000000000000000000000000815260040180806020018281038252602981526020018061108b6029913960400191505060405180910390fd5b6000809054906101000a900473ffffffffffffffffffffffffffffffffffffffff1673ffffffffffffffffffffffffffffffffffffffff163373ffffffffffffffffffffffffffffffffffffffff1614806106b15750600160009054906101000a900473ffffffffffffffffffffffffffffffffffffffff1673ffffffffffffffffffffffffffffffffffffffff163373ffffffffffffffffffffffffffffffffffffffff16145b610706576040517f08c379a000000000000000000000000000000000000000000000000000000000815260040180806020018281038252603d81526020018061104e603d913960400191505060405180910390fd5b600160009054906101000a900473ffffffffffffffffffffffffffffffffffffffff1673ffffffffffffffffffffffffffffffffffffffff163373ffffffffffffffffffffffffffffffffffffffff16146107ac576040517f08c379a000000000000000000000000000000000000000000000000000000000815260040180806020018281038252603c8152602001806110b4603c913960400191505060405180910390fd5b806004806101000a81548160ff0219169083151502179055507f7c2e10bc6fec2dce37c8b702a67f1a801b63abfa3c2633d7e25ff245d3655d0c81604051808215151515815260200191505060405180910390a150565b6000600460029054906101000a900460ff1661086a576040517f08c379a000000000000000000000000000000000000000000000000000000000815260040180806020018281038252602981526020018061108b6029913960400191505060405180910390fd5b600460009054906101000a900460ff16905090565b6000600354905090565b600260009054906101000a900473ffffffffffffffffffffffffffffffffffffffff1673ffffffffffffffffffffffffffffffffffffffff163373ffffffffffffffffffffffffffffffffffffffff161461094c576040517f08c379a000000000000000000000000000000000000000000000000000000000815260040180806020018281038252601a8152602001807f417574686f72697a6174696f6e20756e7375636365737366756c00000000000081525060200191505060405180910390fd5b6109766000809054906101000a900473ffffffffffffffffffffffffffffffffffffffff16610c76565b565b600460029054906101000a900460ff166109dd576040517f08c379a000000000000000000000000000000000000000000000000000000000815260040180806020018281038252602981526020018061108b6029913960400191505060405180910390fd5b6000809054906101000a900473ffffffffffffffffffffffffffffffffffffffff1673ffffffffffffffffffffffffffffffffffffffff163373ffffffffffffffffffffffffffffffffffffffff161480610a855750600160009054906101000a900473ffffffffffffffffffffffffffffffffffffffff1673ffffffffffffffffffffffffffffffffffffffff163373ffffffffffffffffffffffffffffffffffffffff16145b610ada576040517f08c379a000000000000000000000000000000000000000000000000000000000815260040180806020018281038252603d81526020018061104e603d913960400191505060405180910390fd5b6000809054906101000a900473ffffffffffffffffffffffffffffffffffffffff1673ffffffffffffffffffffffffffffffffffffffff163373ffffffffffffffffffffffffffffffffffffffff161415610b4e5780600460016101000a81548160ff021916908315150217905550610b69565b80600460006101000a81548160ff0219169083151502179055505b7f8ccded3c3839def5815fec37a327366b2f6e1b39e3400f528d7f299bace67e0e3382604051808373ffffffffffffffffffffffffffffffffffffffff1673ffffffffffffffffffffffffffffffffffffffff168152602001821515151581526020019250505060405180910390a1610be0610f32565b50565b6000600460029054906101000a900460ff16610c4a576040517f08c379a000000000000000000000000000000000000000000000000000000000815260040180806020018281038252602981526020018061108b6029913960400191505060405180910390fd5b600460019054906101000a900460ff16905090565b6000600460029054906101000a900460ff16905090565b600160009054906101000a900473ffffffffffffffffffffffffffffffffffffffff1673ffffffffffffffffffffffffffffffffffffffff168173ffffffffffffffffffffffffffffffffffffffff161480610d1e57506000809054906101000a900473ffffffffffffffffffffffffffffffffffffffff1673ffffffffffffffffffffffffffffffffffffffff168173ffffffffffffffffffffffffffffffffffffffff16145b610d73576040517f08c379a000000000000000000000000000000000000000000000000000000000815260040180806020018281038252602b8152602001806110f0602b913960400191505060405180910390fd5b600060035414610ee8576000600354905060006003819055506000600160009054906101000a900473ffffffffffffffffffffffffffffffffffffffff1673ffffffffffffffffffffffffffffffffffffffff168373ffffffffffffffffffffffffffffffffffffffff161415610e0e57600160009054906101000a900473ffffffffffffffffffffffffffffffffffffffff169050610e33565b6000809054906101000a900473ffffffffffffffffffffffffffffffffffffffff1690505b8073ffffffffffffffffffffffffffffffffffffffff166108fc839081150290604051600060405180830381858888f19350505050158015610e79573d6000803e3d6000fd5b507f39bb2fc047ce133db19b8ea5f97f0f5a13a5b2ecfffcbd5df2caaf2edcddc9e08183604051808373ffffffffffffffffffffffffffffffffffffffff1673ffffffffffffffffffffffffffffffffffffffff1681526020018281526020019250505060405180910390a150505b6000600460026101000a81548160ff0219169083151502179055507f75aae55e48045fff0a38d59d6294adad5fc9412f4561917a364e47e2aeab136760405160405180910390a150565b60001515600460009054906101000a900460ff1615151415610f7d57610f786000809054906101000a900473ffffffffffffffffffffffffffffffffffffffff16610c76565b61101e565b60001515600460019054906101000a900460ff161515141561101d576004809054906101000a900460ff1615610fdc57610fd76000809054906101000a900473ffffffffffffffffffffffffffffffffffffffff16610c76565b61101c565b6004809054906101000a900460ff1661101b5761101a600160009054906101000a900473ffffffffffffffffffffffffffffffffffffffff16610c76565b5b5b5b5b56fe53656c6c65722063616e6e6f74206465706f73697420696e746f207468656972206f776e20686f6c64696e672e4f6e6c79207061727469636970616e747320696e207468697320636f6e74726163742063616e20696e766f6b652074686573652066756e6374696f6e735468697320686f6c64696e67206465706f73697420636f6e74726163742068617320636c6f7365642e4f6e6c79207468652073656c6c65722063616e20696e69746961746520616e2075706461746520746f20746865206465706f736974207374617475734f6e6c79207061727469636970616e74732063616e20686176652066756e64732077697468647261776e2ea165627a7a72305820d0dd6ead2bc8c967d85654340f1b7b2ec1591438008b88727ae043a0a3bd01e60029",
  "source": "pragma solidity ^0.5.7;\n\n\ncontract HoldingDepositFactory {\n\n\t// State\n\tmapping(bytes32 => address) holding_deposit_contracts;\n\n\n\t// Events\n\tevent holding_deposit_created(bytes32 session_id_hash, address holding_deposit_contract);\n\n\n\t// Behaviour\n\tfunction open_holding_deposit(bytes32 _session_id_hash)\n\tpublic\n\t{\n\t\taddress holding_deposit_contract = address(new HoldingDeposit(msg.sender));\n\t\tholding_deposit_contracts[_session_id_hash] = holding_deposit_contract;\n\n\t\temit holding_deposit_created(_session_id_hash, holding_deposit_contract);\n\t}\n\n\tfunction get_holding_deposit_contract(bytes32 _session_id_hash)\n\tpublic view\n\treturns (address)\n\t{\n\t\treturn holding_deposit_contracts[_session_id_hash];\n\t}\n}\n\ncontract HoldingDeposit {\n\n\t// State\n\taddress payable buyer;\n\taddress payable seller;\n\taddress private authority = 0x8a23c7C42333ed6be5a68c24031cd7A737fbcBE8;\n\tuint deposit;\n\n\tbool seller_status = false;\n\tbool buyer_status = false;\n\tbool open = false;\n\tbool locked = false;\n\tbool deposit_refundable = true;\n\n\n\t// Constructor\n\tconstructor(address payable _seller)\n\tpublic\n\t{\n\t\t// Add seller to the contract\n\t\tseller = _seller;\n\t\tseller_status = true;\n\t\topen = true;\n\t}\n\n\n\t// Modifiers\n\tmodifier openHolding() {\n\t\trequire(open, \"This holding deposit contract has closed.\");\n\t\t_;\n\t}\n\n\tmodifier onlyParticipants() {\n\t\trequire(msg.sender == buyer || msg.sender == seller,\n\t\t\t\t \"Only participants in this contract can invoke these functions\");\n\t\t_;\n\t}\n\n\n\t// Events\n\tevent funds_deposited(address buyer, uint value);\n\tevent status_updated(address sender, bool status);\n\tevent deposit_status_updated(bool status);\n\tevent deposit_withdrawn(address receiver, uint amount);\n\tevent hd_closed();\n\n\t// Functions\n\tfunction deposit_funds()\n\tpublic payable openHolding\n\t{\n\t\trequire(!locked, \"No more deposits\");\n\t\trequire(msg.sender != seller, \"Seller cannot deposit into their own holding.\");\n\t\tlocked = true;\n\n\t\tbuyer = msg.sender;\n\t\tdeposit = msg.value;\n\t\tbuyer_status = true;\n\n\t\temit funds_deposited(msg.sender, msg.value);\n\t}\n\n\tfunction update_status(bool _status)\n\tpublic openHolding onlyParticipants\n\t{\n\t\tif (msg.sender == buyer) {\n\t\t\tbuyer_status = _status;\n\t\t}\n\t\telse {\n\t\t\tseller_status = _status;\n\t\t}\n\n\t\temit status_updated(msg.sender, _status);\n\n\t\tcheck_deposit_status();\n\t}\n\n\tfunction update_deposit_status(bool _status)\n\tpublic openHolding onlyParticipants\n\t{\n\t\trequire(msg.sender == seller, \"Only the seller can initiate an update to the deposit status\");\n\t\tdeposit_refundable = _status;\n\t\temit deposit_status_updated(_status);\n\t}\n\n\tfunction withdraw(address payable _receiver)\n\tprivate\n\t{\n\t\trequire(_receiver == seller || _receiver == buyer, \"Only participants can have funds withdrawn.\");\n\n\t\tif (deposit != 0) {\n\n\t\t\tuint deposit_amount = deposit;\n\t\t\tdeposit = 0;\n\t\t\taddress payable receiver;\n\n\t\t\t// Determine receiver of deposit\n\t\t\tif (_receiver == seller) {\n\t\t\t\treceiver = seller;\n\t\t\t}\n\t\t\telse {\n\t\t\t\treceiver = buyer;\n\t\t\t}\n\n\t\t\t// Withraw the deposit\n\t\t\treceiver.transfer(deposit_amount);\n\t\t\temit deposit_withdrawn(receiver, deposit_amount);\n\t\t}\n\n\t\t// Close the holding deposit contract\n\t\topen = false;\n\t\temit hd_closed();\n\t}\n\n\tfunction check_deposit_status()\n\tprivate\n\t{\n\t\t// If seller says no, buyer is refunded deposit\n\t\tif (seller_status == false) {\n\t\t\twithdraw(buyer);\n\t\t}\n\t\telse if (buyer_status == false) {\n\t\t\t// Check status of deposit\n\t\t\tif (deposit_refundable) {\n\t\t\t\twithdraw(buyer);\n\t\t\t}\n\t\t\telse if (!deposit_refundable) {\n\t\t\t\twithdraw(seller);\n\t\t\t}\n\t\t}\n\t}\n\n\t\t// Release deposit upon escrow completion\n\tfunction release_deposit()\n\tpublic\n\t{\n\t\trequire(msg.sender == authority, \"Authorization unsuccessful\");\n\t\twithdraw(buyer);\n\t}\n\n\n\t// Getters\n\tfunction get_participants()\n\tpublic view\n\treturns (address, address)\n\t{\n\t\treturn (seller, buyer);\n\t}\n\n\tfunction is_refundable()\n\tpublic view\n\treturns (bool)\n\t{\n\t\treturn deposit_refundable;\n\t}\n\n\tfunction is_open()\n\tpublic view\n\treturns (bool)\n\t{\n\t\treturn open;\n\t}\n\n\tfunction get_deposit_amount()\n\tpublic view\n\treturns (uint)\n\t{\n\t\treturn deposit;\n\t}\n\n\tfunction get_buyer_status()\n\tpublic view openHolding\n\treturns (bool)\n\t{\n\t\treturn buyer_status;\n\t}\n\n\tfunction get_seller_status()\n\tpublic view openHolding\n\treturns (bool)\n\t{\n\t\treturn seller_status;\n\t}\n}\n",
  "sourcePath": "/c/Users/Vandern Rodrigues/Projects/fyp/contracts/contracts/HoldingDeposit.sol",
  "compiler": {
    "name": "solc",
    "version": "0.5.7+commit.6da8b019.Emscripten.clang"
  },
  "schemaVersion": "3.0.5",
  "updatedAt": "2019-05-18T16:22:25.059Z",
  "devdoc": {
    "methods": {}
  },
  "userdoc": {
    "methods": {}
  }
}