{
  "contractName": "Verifier",
  "abi": [
    {
      "anonymous": false,
      "inputs": [
        {
          "indexed": false,
          "name": "property_uid",
          "type": "bytes32"
        }
      ],
      "name": "verification_requested",
      "type": "event",
      "signature": "0xe67ea319ad509472f8fe19f76c94905173d83826e5405408a0f4f22aa90934c9"
    },
    {
      "constant": false,
      "inputs": [
        {
          "name": "_property_uid",
          "type": "bytes32"
        }
      ],
      "name": "verify",
      "outputs": [],
      "payable": false,
      "stateMutability": "nonpayable",
      "type": "function",
      "signature": "0x75e36616"
    }
  ],
  "bytecode": "0x608060405234801561001057600080fd5b5060db8061001f6000396000f3fe6080604052348015600f57600080fd5b50600436106045576000357c01000000000000000000000000000000000000000000000000000000009004806375e3661614604a575b600080fd5b607360048036036020811015605e57600080fd5b81019080803590602001909291905050506075565b005b7fe67ea319ad509472f8fe19f76c94905173d83826e5405408a0f4f22aa90934c9816040518082815260200191505060405180910390a15056fea165627a7a723058208b69e8e3e37bfa90330a9a5b01d8a0d00c1232c13bd3d9a0b39fced9a2cbabe50029",
  "source": "pragma solidity 0.5.7;\n\ncontract Verifier {\n\n\t// Events\n\tevent verification_requested(bytes32 property_uid);\n\n\t// Functions\n\tfunction verify(bytes32 _property_uid)\n\tpublic\n\t{\n\t\temit verification_requested(_property_uid);\n\t}\n}\n",
  "sourcePath": "/c/Users/Vandern Rodrigues/Projects/fyp/contracts/contracts/Verifier.sol",
  "compiler": {
    "name": "solc",
    "version": "0.5.7+commit.6da8b019.Emscripten.clang"
  },
  "schemaVersion": "3.0.5",
  "updatedAt": "2019-05-12T14:57:23.648Z",
  "devdoc": {
    "methods": {}
  },
  "userdoc": {
    "methods": {}
  }
}