{
  "contractName": "Verifier",
  "abi": [
    {
      "anonymous": false,
      "inputs": [
        {
          "indexed": false,
          "name": "title_deed_hash",
          "type": "bytes32"
        },
        {
          "indexed": false,
          "name": "owner_forename",
          "type": "string"
        },
        {
          "indexed": false,
          "name": "owner_surname",
          "type": "string"
        }
      ],
      "name": "verification_requested",
      "type": "event",
      "signature": "0x9fbd31b535511545b1681575ad3f18613afa630fe2c3d98bb44aadf9e79c8123"
    },
    {
      "anonymous": false,
      "inputs": [
        {
          "indexed": false,
          "name": "title_deed_hash",
          "type": "bytes32"
        },
        {
          "indexed": false,
          "name": "result",
          "type": "bool"
        }
      ],
      "name": "verification_completed",
      "type": "event",
      "signature": "0x884dfe8ab4f14322c38e8db986f673303325b3dc6e7a1a5056c5c052b8261c96"
    },
    {
      "constant": false,
      "inputs": [
        {
          "name": "_title_deed_hash",
          "type": "bytes32"
        },
        {
          "name": "_owner_forename",
          "type": "string"
        },
        {
          "name": "_owner_surname",
          "type": "string"
        }
      ],
      "name": "verify",
      "outputs": [],
      "payable": false,
      "stateMutability": "nonpayable",
      "type": "function",
      "signature": "0x0ec1b057"
    },
    {
      "constant": false,
      "inputs": [
        {
          "name": "_title_deed_hash",
          "type": "bytes32"
        },
        {
          "name": "_result",
          "type": "bool"
        }
      ],
      "name": "verified",
      "outputs": [],
      "payable": false,
      "stateMutability": "nonpayable",
      "type": "function",
      "signature": "0x3831e0d1"
    }
  ],
  "bytecode": "0x608060405234801561001057600080fd5b50610377806100206000396000f3fe608060405234801561001057600080fd5b5060043610610053576000357c0100000000000000000000000000000000000000000000000000000000900480630ec1b057146100585780633831e0d1146101b4575b600080fd5b6101b26004803603606081101561006e57600080fd5b81019080803590602001909291908035906020019064010000000081111561009557600080fd5b8201836020820111156100a757600080fd5b803590602001918460018302840111640100000000831117156100c957600080fd5b91908080601f016020809104026020016040519081016040528093929190818152602001838380828437600081840152601f19601f8201169050808301925050505050505091929192908035906020019064010000000081111561012c57600080fd5b82018360208201111561013e57600080fd5b8035906020019184600183028401116401000000008311171561016057600080fd5b91908080601f016020809104026020016040519081016040528093929190818152602001838380828437600081840152601f19601f8201169050808301925050505050505091929192905050506101ee565b005b6101ec600480360360408110156101ca57600080fd5b8101908080359060200190929190803515159060200190929190505050610304565b005b7f9fbd31b535511545b1681575ad3f18613afa630fe2c3d98bb44aadf9e79c8123838383604051808481526020018060200180602001838103835285818151815260200191508051906020019080838360005b8381101561025c578082015181840152602081019050610241565b50505050905090810190601f1680156102895780820380516001836020036101000a031916815260200191505b50838103825284818151815260200191508051906020019080838360005b838110156102c25780820151818401526020810190506102a7565b50505050905090810190601f1680156102ef5780820380516001836020036101000a031916815260200191505b509550505050505060405180910390a1505050565b7f884dfe8ab4f14322c38e8db986f673303325b3dc6e7a1a5056c5c052b8261c96828260405180838152602001821515151581526020019250505060405180910390a1505056fea165627a7a723058203638571130d3cb51240fedc34d095785db1bcb2a543fc56d898cc9a7e2169afc0029",
  "source": "pragma solidity 0.5.7;\n\ncontract Verifier {\n\n\t// Events\n\tevent verification_requested(bytes32 title_deed_hash,\n\t\t\t\t\t\t\t\t\t\t  string owner_forename,\n\t\t\t\t\t\t\t\t\t\t  string owner_surname);\n\n\tevent verification_completed(bytes32 title_deed_hash,\n\t\t\t\t\t\t\t\t\t\t  bool result);\n\n\t// Functions\n\tfunction verify(bytes32 _title_deed_hash,\n\t\t\t\t\t\t string memory _owner_forename,\n\t\t\t\t\t\t string memory _owner_surname)\n\tpublic\n\t{\n\t\temit verification_requested(_title_deed_hash, _owner_forename, _owner_surname);\n\t}\n\n\tfunction verified(bytes32 _title_deed_hash, bool _result)\n\tpublic\n\t{\n\t\temit verification_completed(_title_deed_hash, _result);\n\t}\n}\n",
  "sourcePath": "/c/Users/Vandern Rodrigues/Projects/fyp/contracts/contracts/Verifier.sol",
  "compiler": {
    "name": "solc",
    "version": "0.5.7+commit.6da8b019.Emscripten.clang"
  },
  "schemaVersion": "3.0.5",
  "updatedAt": "2019-04-30T07:42:23.271Z",
  "devdoc": {
    "methods": {}
  },
  "userdoc": {
    "methods": {}
  }
}