{
  "contractName": "Verifier",
  "abi": [
    {
      "anonymous": false,
      "inputs": [
        {
          "indexed": false,
          "name": "property_uid",
          "type": "bytes32"
        }
      ],
      "name": "verification_requested",
      "type": "event",
      "signature": "0xe67ea319ad509472f8fe19f76c94905173d83826e5405408a0f4f22aa90934c9"
    },
    {
      "constant": false,
      "inputs": [
        {
          "name": "_property_uid",
          "type": "bytes32"
        }
      ],
      "name": "verify",
      "outputs": [],
      "payable": false,
      "stateMutability": "nonpayable",
      "type": "function",
      "signature": "0x75e36616"
    }
  ],
  "bytecode": "0x608060405234801561001057600080fd5b5060db8061001f6000396000f3fe6080604052348015600f57600080fd5b50600436106045576000357c01000000000000000000000000000000000000000000000000000000009004806375e3661614604a575b600080fd5b607360048036036020811015605e57600080fd5b81019080803590602001909291905050506075565b005b7fe67ea319ad509472f8fe19f76c94905173d83826e5405408a0f4f22aa90934c9816040518082815260200191505060405180910390a15056fea165627a7a72305820eca0f5eea18164992fbf3be2794aa3c4dd6648777826fc09d05f333cc47cca460029",
  "source": "pragma solidity 0.5.7;\r\n\r\ncontract Verifier {\r\n\r\n\t// Events\r\n\tevent verification_requested(bytes32 property_uid);\r\n\r\n\t// Functions\r\n\tfunction verify(bytes32 _property_uid)\r\n\tpublic\r\n\t{\r\n\t\temit verification_requested(_property_uid);\r\n\t}\r\n}\r\n",
  "sourcePath": "/c/Users/Vandern Rodrigues/Projects/University Work/fyp-test-3/contracts/contracts/Verifier.sol",
  "compiler": {
    "name": "solc",
    "version": "0.5.7+commit.6da8b019.Emscripten.clang"
  },
  "schemaVersion": "3.0.5",
  "updatedAt": "2019-06-25T01:22:07.005Z",
  "devdoc": {
    "methods": {}
  },
  "userdoc": {
    "methods": {}
  }
}